:100000000C9434000C943E000C943E000C943E0082
:100010000C943E000C943E000C943E000C943E0068
:100020000C943E000C943E000C943E000C943E0058
:100030000C943E000C943E000C943E000C943E0048
:100040000C943E000C943E000C943E000C943E0038
:100050000C943E000C943E000C943E000C943E0028
:100060000C943E000C943E0011241FBECFEFD8E04C
:10007000DEBFCDBF0E9491000C94D1000C94000013
:100080008FEF8AB98AEA8BB92FEF83EC99E0215080
:1000900080409040E1F700C000001BB885E58BB9B7
:1000A0002FEF83EC99E0215080409040E1F700C0B1
:1000B00000001BB808958FEF8AB981E08BB920E06A
:1000C00030E0283031057CF44FEF81EE94E0415070
:1000D00080409040E1F700C000008BB1880F8BB9E1
:1000E0002F5F3F4FEECF08958FEF8AB980E88BB92D
:1000F00020E030E0283031058CF44FEF81EE94E0C1
:10010000415080409040E1F700C000008BB190E08A
:10011000959587958BB92F5F3F4FECCF0E945B0081
:10012000089517B88FEF84B988B1836088B9C0E0AB
:10013000D0E0309905C0C330D10524F080E003C081
:1001400080E001C081E0882311F0219605C0C33012
:10015000D10514F0C0E0D0E0319911C0C130D10513
:1001600041F0C230D10541F0209751F488E085B9C3
:1001700007C080E185B904C088E185B901C015B820
:10018000C130D10541F0C230D10541F0209789F648
:100190000E944000CECF0E945B00CBCF0E94740033
:0601A000C8CFF894FFCF68
:00000001FF
