:100000000C9434000C943E000C943E000C943E0082
:100010000C943E000C943E000C943E000C943E0068
:100020000C943E000C943E000C943E000C943E0058
:100030000C943E000C943E000C943E000C943E0048
:100040000C943E000C943E000C943E000C943E0038
:100050000C943E000C943E000C943E000C943E0028
:100060000C943E000C943E0011241FBECFEFD8E04C
:10007000DEBFCDBF0E9477000C9485000C94000079
:100080008FEF8AB98AEA8BB92FEF81EE94E0215085
:1000900080409040E1F700C000001BB885E58BB9B7
:1000A0002FEF81EE94E0215080409040E1F700C0B6
:1000B00000001BB8089581E08AB98BB920E030E0D8
:1000C00091E02830310594F44FEF51EE84E0415037
:1000D00050408040E1F700C000001AB88BB1880F93
:1000E0008BB9990F9AB92F5F3F4FEBCF08950E94BC
:1000F00040002FEF81EE94E0215080409040E1F7E6
:0E01000000C000000E945B00F2CFF894FFCF19
:00000001FF
